:100000000C94E2020C940A030C940A030C940A0365
:100010000C940A030C940A030C940A030C940A032C
:100020000C940A030C940A030C940A030C940A031C
:100030000C940A030C940A030C940A030C940A030C
:100040000C946B0F0C940A030C94DB0F0C94B50FFB
:100050000C940A030C940A030C940A030C940A03EC
:100060000C940D100C940A0300000000003E5B4F3E
:100070005B3E3E6B4F6B3E1C3E7C3E1C183C7E3C08
:10008000181C577D571C1C5E7F5E1C00183C180016
:10009000FFE7C3E7FF0018241800FFE7DBE7FF30A6
:1000A000483A060E2629792926407F050507407F14
:1000B00005253F5A3CE73C5A7F3E1C1C08081C1C87
:1000C0003E7F14227F22145F5F005F5F06097F017D
:1000D0007F006689956A606060606094A2FFA29468
:1000E00008047E040810207E201008082A1C080836
:1000F0001C2A08081E101010100C1E0C1E0C303884
:100100003E3830060E3E0E06000000000000005F84
:1001100000000007000700147F147F14242A7F2AA0
:100120001223130864623649562050000807030062
:10013000001C2241000041221C002A1C7F1C2A08AE
:10014000083E080800807030000808080808000011
:1001500060600020100804023E5149453E00427F85
:10016000400072494949462141494D331814127FD4
:100170001027454545393C4A494931412111090774
:100180003649494936464949291E000014000000F5
:1001900040340000000814224114141414140041C7
:1001A00022140802015909063E415D594E7C121184
:1001B000127C7F494949363E414141227F414141BC
:1001C0003E7F494949417F090909013E4141517337
:1001D0007F0808087F00417F41002040413F017FA8
:1001E000081422417F404040407F021C027F7F0470
:1001F00008107F3E4141413E7F090909063E4151B9
:10020000215E7F09192946264949493203017F01A8
:10021000033F4040403F1F2040201F3F4038403FA9
:10022000631408146303047804036159494D4300BF
:100230007F4141410204081020004141417F0402F6
:10024000010204404040404000030708002054548D
:1002500078407F284444383844444428384444286B
:100260007F385454541800087E090218A4A49C78BE
:100270007F0804047800447D40002040403D007F1A
:100280001028440000417F40007C047804787C08FA
:100290000404783844444438FC18242418182424CE
:1002A00018FC7C08040408485454542404043F44B3
:1002B000243C4040207C1C2040201C3C4030403CE2
:1002C00044281028444C9090907C4464544C440042
:1002D00008364100000077000000413608000201A6
:1002E0000204023C2623263C1EA1A161123A404092
:1002F000207A38545455592155557941225454780F
:1003000042215554784020545579400C1E527212A7
:100310003955555559395454545939555454580030
:1003200000457C410002457D420001457C407D1234
:1003300011127DF0282528F07C5455450020545496
:100340007C547C0A097F4932494949323A44444441
:100350003A324A4848303A4141217A3A424020787C
:10036000009DA0A07D3D4242423D3D4040403D3C7D
:1003700024FF2424487E4943662B2FFC2F2BFF09A2
:1003800029F620C0887E0903205454794100004496
:100390007D413048484A32384040227A007A0A0A81
:1003A000727D0D19317D2629292F282629292926F4
:1003B00030484D4020380808080808080808382F39
:1003C00010C8ACBA2F102834FA00007B00000814C3
:1003D0002A142222142A14085500550055AA55AA99
:1003E00055AAFF55FF55FF000000FF00101010FF39
:1003F00000141414FF001010FF00FF1010F010F094
:10040000141414FC001414F700FF0000FF00FF1484
:1004100014F404FC141417101F10101F101F1414D0
:10042000141F00101010F0000000001F101010101A
:100430001F10101010F010000000FF10101010100E
:1004400010101010FF10000000FF140000FF00FF4C
:1004500000001F10170000FC04F4141417101714E8
:1004600014F404F40000FF00F7141414141414140A
:10047000F700F7141414171410101F101F1414147D
:10048000F4141010F010F000001F101F0000001FE7
:1004900014000000FC140000F010F01010FF10FF1A
:1004A000141414FF141010101F00000000F010FFAF
:1004B000FFFFFFFFF0F0F0F0F0FFFFFF0000000093
:1004C00000FFFF0F0F0F0F0F3844443844FC4A4A17
:1004D0004A347E02020606027E027E0263554941CC
:1004E000633844443C04407E201E2006027E020203
:1004F00099A5E7A5991C2A492A1C4C7201724C3017
:100500004A4D4D303048784830BC625A463D3E49ED
:100510004949007E0101017E2A2A2A2A2A44445F91
:10052000444440514A444040444A51400000FF0185
:1005300003E080FF000008086B6B08361236243693
:10054000060F090F060000181800000010100030F8
:1005500040FF0101001F01011E00191D1712003C80
:100560003C3C3C000000000000000000240027008C
:100570002A00000000080002010000030407000038
:1005800000000000000000000000230026002900F9
:10059000010204081020408001020408102001021A
:1005A0000408102000000000250028002B0004048F
:1005B000040404040404020202020202030303030B
:1005C0000303281111241FBECFEFD8E0DEBFCDBF3B
:1005D00013E0A0E0B1E0E2E7F4E302C005900D9281
:1005E000AC36B107D9F724E0ACE6B3E001C01D9208
:1005F000AB3DB207E1F712E0C2EED2E004C02197B2
:10060000FE010E940719C13ED107C9F70E94F311EC
:100610000C94371A0C940000FC0120812EBD0DB4FF
:1006200007FEFDCF2EB5FC0120830895833081F0B5
:1006300028F4813099F08230A9F008958730A9F02C
:100640008830C9F08430B1F4809180008F7D03C080
:10065000809180008F7780938000089584B58F7794
:1006600084BD089584B58F7DFBCF8091B0008F77D6
:100670008093B00008958091B0008F7DF9CFCF9323
:10068000DF93282F30E0F901EE58FA4F8491F901F9
:10069000E057FA4FD491F901E255FA4FC491CC23B7
:1006A000A1F081110E941603EC2FF0E0EE0FFF1F66
:1006B000EA57FA4FA591B491EC91ED2381E090E0D7
:1006C00009F480E0DF91CF91089580E090E0FACFC7
:1006D0001F93CF93DF93282F30E0F901EE58FA4FA4
:1006E0008491F901E057FA4FD491F901E255FA4F9C
:1006F000C491CC23A9F0162F81110E941603EC2F70
:10070000F0E0EE0FFF1FEC55FA4FA591B4918FB7B3
:10071000F894EC91111108C0D095DE23DC938FBFC3
:10072000DF91CF911F910895DE2BF8CFCF93DF9308
:1007300090E0FC01E057FA4F249182559A4FFC015A
:1007400084918823D1F090E0880F991FFC01E8592B
:10075000FA4FA591B491FC01EC55FA4FC591D49193
:1007600061110EC09FB7F8948C91E22FE0958E2313
:100770008C932881E223E8839FBFDF91CF91089576
:100780008FB7F894EC91E22BEC938FBFF6CF8E509D
:10079000806480937C0080917A00806480937A00EA
:1007A00080917A0086FDFCCF80917800909179004D
:1007B00008958230910538F0880F991F880F991F8E
:1007C00005970197F1F708959F92AF92BF92CF924C
:1007D000DF92EF92FF920F931F93CF93DF93EC0181
:1007E0006B018885998511E0892B09F010E8F601E5
:1007F000A0808A2D8123992493948111912C2C819E
:100800003D814E815F8160E271EA87E090E00E9465
:10081000D118022FB12CE22EF12C002319F0C701C0
:100820000E94D9038A85877F09F04FC08D858F3F4D
:1008300089F09A2D912381E009F480E0891551F027
:10084000EF85F8898F899923D1F19081892B808355
:1008500099249394E989FA898081998D892B8083E1
:10086000002319F0C7010E94D9038E858F3F39F00C
:10087000EB89FC898081988D892309F0B12AE98967
:10088000FA899081898D8095892380838E858F3F19
:1008900011F0F601B08288859985892B09F044C052
:1008A000110F1111BACFDF91CF911F910F91FF90CE
:1008B000EF90DF90CF90BF90AF909F900895908180
:1008C000809589238083912CC5CFE989FA8980811D
:1008D000998D892B8083002319F0C7010E94D903C9
:1008E0008D858F3F49F0EF85F8898F899A2D912367
:1008F000B9F09081892B8083E989FA899081898D6B
:100900008095892380838E858F3F09F4BFCFEB8943
:10091000FC898081988D892309F4B8CFB12AB6CF9C
:10092000908180958923E7CF1695BBCFAF92BF9278
:10093000CF92DF92EF92FF920F931F93CF93DF93AB
:100940001F92CDB7DEB78C015B016A01DC018D918E
:100950009C911197892B39F01296ED91FC91908121
:1009600081819CBD8DBDF80183858F3F19F060E0CA
:100970000E9468037501CA0CDB1CCE14DF04A9F0C9
:10098000D7018D917D018983F80180819181892B27
:1009900029F0CE0101960E940C03EFCFBE016F5FDC
:1009A0007F4FC8010E94E403E8CFD8011B968C91C9
:1009B0008F3F19F061E00E94680381E00F90DF91A2
:1009C000CF911F910F91FF90EF90DF90CF90BF904C
:1009D000AF9008953FB7F89480910F049091100460
:1009E000A0911104B091120426B5A89B05C02F3F19
:1009F00019F00196A11DB11D3FBFBA2FA92F982F45
:100A00008827BC01CD01620F711D811D911D42E03F
:100A1000660F771F881F991F4A95D1F708958F9207
:100A20009F92AF92BF92CF92DF92EF92FF924B01D3
:100A30005C010E94EA046B017C010E94EA046C19CB
:100A40007D098E099F09683E734081059105A8F3D1
:100A500021E0821A9108A108B10888EEC80E83E04F
:100A6000D81EE11CF11C81149104A104B10429F7E2
:100A7000FF90EF90DF90CF90BF90AF909F908F90BE
:100A80000895AF92BF92CF92DF92EF92FF920F93B1
:100A90001F93CF93DF936C017B018B01040F151F14
:100AA000EB015E01AE18BF08C017D10759F069917C
:100AB000D601ED91FC910190F081E02DC6010995E0
:100AC000892B79F7C501DF91CF911F910F91FF908D
:100AD000EF90DF90CF90BF90AF900895FC01538DC1
:100AE000448D252F30E0842F90E0821B930B541708
:100AF00010F0CF96089501970895FC01918D828D95
:100B0000981761F0A28DAE0FBF2FB11D5D968C912D
:100B1000928D9F5F9F73928F90E008958FEF9FEF6C
:100B20000895FC01918D828D981731F0828DE80F28
:100B3000F11D858D90E008958FEF9FEF0895FC01E2
:100B4000918D228D892F90E0805C9F4F821B9109AF
:100B50008F739927089583E194E00E949F0521E017
:100B6000892B09F420E0822F089580E090E0892B02
:100B700029F00E94AB0581110C9400000895FC013E
:100B8000A48DA80FB92FB11DA35ABF4F2C91848DEE
:100B900090E001968F739927848FA689B7892C934B
:100BA000A089B1898C91837080648C93938D848D9E
:100BB000981306C00288F389E02D80818F7D8083A1
:100BC0000895EF92FF920F931F93CF93DF93EC0161
:100BD00081E0888F9B8D8C8D98131AC0E889F989E4
:100BE000808185FF15C09FB7F894EE89FF896083E7
:100BF000E889F98980818370806480839FBF81E068
:100C000090E0DF91CF911F910F91FF90EF900895A9
:100C1000F62E0B8D10E00F5F1F4F0F731127E02E84
:100C20008C8D8E110CC00FB607FCFACFE889F989BC
:100C3000808185FFF5CFCE010E94BF05F1CFEB8DFE
:100C4000EC0FFD2FF11DE35AFF4FF0829FB7F89490
:100C50000B8FEA89FB8980818062CFCFCF93DF93AE
:100C6000EC01888D8823B9F0AA89BB89E889F989C4
:100C70008C9185FD03C0808186FD0DC00FB607FCF9
:100C8000F7CF8C9185FFF2CF808185FFEDCFCE012C
:100C90000E94BF05E9CFDF91CF9108950F931F9375
:100CA000CF93DF931F92CDB7DEB78C01698360E0ED
:100CB000FC01868D0E94680341E050E0BE016F5F39
:100CC0007F4FF801838D948D0E9496040F90DF91E1
:100CD000CF911F910F910895CF93C82F87FDCFE734
:100CE000C093CF0461E280EB94E00E944E066C2F2B
:100CF000606880EB94E00E944E0660E280EB94E036
:100D0000CF910C944E06CF938091CD0487FD13C0F4
:100D100061E00E94960360E08091CD040E94680328
:100D200061E070E080E090E00E940F0561E080915A
:100D3000CD040E946803C091D004C83008F0C7E019
:100D4000C093D00461E280EB94E00E944E066C2FC9
:100D5000606180EB94E00E944E0660E280EB94E0DC
:100D60000E944E068091CF040E946C0660E280EBE8
:100D700094E00E944E066CE080EB94E0CF910C94DE
:100D80004E06FF920F931F93CF93DF939091D10460
:100D9000992339F08091D2048F5F8917E8F5809309
:100DA000D204D091D504D695D695D69584E5D89F12
:100DB000800111248091D6048695869586958D179D
:100DC00080F16D2F606480EB94E00E944E06C0912C
:100DD000D304F090D4046C2F606880EB94E00E9400
:100DE0004E0661E08091CE040E9468034F2D50E0D2
:100DF0006C2F70E0461B570B4F5F5F4F600F711FEA
:100E000060507F4F8091CB049091CC040E94960457
:100E1000DF5F0C5A1F4FCECF1092D2040E94830680
:100E2000C0CF60E480EB94E00E944E0683E580939F
:100E3000D3041092D4048FE28093D5041092D60488
:100E4000DF91CF911F910F91FF9008951F93CF9342
:100E5000DF93EC01162F60E20E944E066CE0111148
:100E60006DE0CE01DF91CF911F910C944E06FC01F5
:100E700077FD55C080859185681779070CF04FC0C4
:100E800057FD4DC082859385481759070CF047C020
:100E90008689823009F444C0833009F44EC0813021
:100EA00031F48FE290E0861B970BBA01AC01842FDE
:100EB000A62F93A1691708F4962F93A394A19A17CC
:100EC00008F49A2F94A395A1891708F4982F95A355
:100ED00096A1981708F4982F96A3CA0157FD079674
:100EE000E3E095958795EA95E1F7A4E5A89FF001E1
:100EF000A99FF00D1124E60FF71FE050FF4FCA0124
:100F000068E070E00E94BD1841E050E001C0440F6D
:100F10008A95EAF78081232BB9F0842B808308958A
:100F200083E590E0DC01A61BB70BBD018FE290E0EA
:100F3000DC01A41BB50BAD01BACF83E590E0841BA7
:100F4000950BAB01BC01B3CF40958423E7CF209133
:100F50009303260F3327331F21323105ECF4209100
:100F6000B703FC0190E080E0243069F082E008954E
:100F7000A09193032191AC014D585C4FA40FB52F64
:100F8000B11D2C930196861798F380919303680FF7
:100F90006093930380E0089581E0089508958FEFB2
:100FA0009FEF08958FEF9FEF089580916C0390E07D
:100FB0009195819591090895CF93DF93CB01EA0133
:100FC000642F0E94A707CE01DF91CF910895CF93A0
:100FD000DF931F92CDB7DEB7698361E0CE01019642
:100FE0000E94A70781E090E00F90DF91CF910895D4
:100FF0000895FC016370668B848195812681378119
:10100000613039F0633029F09187808733872287F8
:101010000895318720879387828708952F923F9282
:101020004F925F926F927F928F929F92AF92BF92F8
:10103000CF92DF92EF92FF920F931F93CF93DF93A4
:10104000CDB7DEB76A970FB6F894DEBF0FBECDBF3F
:101050009A8F898F7A8369834A01D22E18870F83EA
:101060003701BC2CDC0159962D913C915A972115E2
:10107000310509F015C118968D919C911997681743
:1010800079070CF0D7C11A968D919C914817590792
:101090000CF0D0C14C2C512CB6E0CB9E600D711DD4
:1010A00011247C876B87161617060CF0C3C1EA2D36
:1010B000F0E0FA87E98793E0EE0FFF1F9A95E1F7DA
:1010C000F88BEF87CF01840F951F181619060CF0C7
:1010D000B1C1A98DBA8D58968C91811104C0BFEA17
:1010E000BD1508F4D394A98DBA8DED91FC9111979B
:1010F0000284F385E02DCD010995B5E0DB9EC001AA
:101100001124E981FA81FC83EB83312C212C9C0191
:1011100028593F4F388F2F8B4A2D50E05E8B4D8BD7
:10112000EF89F88DE20DF31D44919E828D82D12CC2
:10113000C12C69817A81620D731D7A8B698B842F32
:1011400090E09C8B8B8BE98DFA8DA081B18140FF63
:1011500082C0F1E0BF126FC0AF126DC01C96ED915E
:10116000FC912F813885A4014C0D5D1D69897A8918
:10117000898D9A8D0995EB89FC89F595E7954E2F18
:101180005FEFC51AD50A6D817E818D899E89680FB2
:10119000791F7E836D8398E0C916D10481F6AFEF85
:1011A0002A1A3A0AEB81FC81E40DF51DFC83EB83DE
:1011B000F5E02F16310409F0B3CF2F8138852615BD
:1011C0003705B9F0A98DBA8DED91FC91B1E0BB1254
:1011D00057C0AB1255C069817A816B5F7F4F008821
:1011E000F189E02D830128E030E0A401898D9A8DFA
:1011F0000995A98DBA8DED91FC9111970688F78913
:10120000E02DCD016A960FB6F894DEBF0FBECDBFBC
:10121000DF91CF911F910F91FF90EF90DF90CF90D2
:10122000BF90AF909F908F907F906F905F904F9006
:101230003F902F9009941E96ED91FC91EF80F884D9
:1012400009851A8592014D815E816B817C81898D32
:101250009A8D099590CF2F8138852615370509F489
:101260008ACF31E0B31207C0A31205C01C96ED91DE
:10127000FC91930178CF1E96ED91FC917301E0CF24
:101280006B857C85641975090684F785E02D7301EB
:101290000F8518899201A401898D9A8D0995A9CF8E
:1012A000F90134969491329745915491D91AB7E047
:1012B000DB9E400D511D1124F901259134913C8B89
:1012C0002B8BFA0125903490FA0132967490319666
:1012D0003491398B329664903196449041E04C15AC
:1012E00018F04A1508F07FC0662D062C000C770B0D
:1012F0007C836B83842D042C000C990B9E838D833F
:10130000A98DBA8DED91FC9111970284F385E02DA2
:10131000CD010995512CD12CC12CEA2DF0E0FA8792
:10132000E9872B2D30E03C872B87A401440D511D0C
:1013300047FC5A95588F4F8B69817A81660D711DD4
:1013400067FC7A957E876D877989C71608F051CF3B
:101350002C2D30E04D815E81420F531FA985BA8547
:101360004A9FC0014B9F900D5A9F900D1124FC0184
:10137000E80DF91DF88BEF87852D612C4F89588D6D
:10138000420F531F5E8B4D8B671408F050C04424EE
:101390004394480E877041F4C1010196EB89FC89A2
:1013A000E20DF31DD4901C01D7FE19C0A98DBA8D92
:1013B000ED91FC91662D70E0B1E0BB1219C0AB124B
:1013C00017C02D853E85620F731F0484F585E02DBF
:1013D0002F8138854D895E89898D9A8D0995DD0C1F
:1013E0006394842DD1CF1E821D821C821B8288CFE4
:1013F0004B815C81640F751FAB85BC856A9FC00102
:101400006B9F900D7A9F900D112469817A81680FEE
:10141000791F0684F785E02DEF80F88409851A8509
:101420009D014F855889898D9A8D0995D8CF570C84
:10143000C3948ACF6A960FB6F894DEBF0FBECDBFB5
:10144000DF91CF911F910F91FF90EF90DF90CF90A0
:10145000BF90AF909F908F907F906F905F904F90D4
:101460003F902F9008958F929F92AF92CF92EF92DC
:10147000FF920F931F93CF93DF93EC01262F898D5B
:101480009A8D009709F051C06A30D1F41D861C86F0
:101490008D8948E0849F900111248E859F85820F5D
:1014A000931F9F878E8781E090E0DF91CF911F91FE
:1014B0000F91FF90EF90CF90AF909F908F900895F5
:1014C0006D3089F3CC88AD888F898823C1F08C85F5
:1014D0009D8536E0C39E800D911D11244885598558
:1014E0004817590764F44E855F851D861C8638E0D1
:1014F000A39EC0011124840F951F9F878E87EA88C1
:10150000FB88088919894E855F856C857D85CE01AC
:101510000E940E082C898C859D8546E0249F800DB5
:10152000911D11249D878C87BECF6A3069F41D867A
:101530001C86FC013896E4912D898E859F85E29F5B
:10154000800D911D1124ADCF6D3009F4ACCFFC019D
:1015500034963491631708F4A6CF3296E491E617D7
:1015600008F4A1CFFC01329685909490462F431B3E
:10157000342F47E0349F800C911C1124F4013296E3
:1015800034913196E4913323A9F1EE2399F1CC887B
:10159000F4013596E491AD884F89442301F10E2E74
:1015A000000CFF0BE30FF11DCE9EA001CF9E500D4E
:1015B00011246C857D85460F571F688579856417D2
:1015C00075076CF44E855F851D861C86FC01389678
:1015D000E491AE9E400D511D11245F874E87EA882D
:1015E000FB88088919894E855F856C857D85CE01CC
:1015F0000E940E08F4013496E4912C898C859D8517
:10160000E29F800D911D11248DCF6F927F928F925A
:101610009F92AF92BF92CF92DF92EF92FF920F9381
:101620001F93CF93DF93EC016B015A0139014801FD
:10163000E881F9810284F385E02D0995E881F9813B
:101640000288F389E02D87019301A501B601CE013F
:101650000995A501480D591D41505109E881F981AD
:101660000288F389E02D9301B601CE010995E88146
:10167000F9810088F189E02D9401A501B601CE0120
:101680000995C60CD71CB60161507109E881F98132
:101690000088F189E02D9401A501CE010995E8812A
:1016A000F9810688F789E02DCE01DF91CF911F9156
:1016B0000F91FF90EF90DF90CF90BF90AF909F90F1
:1016C0008F907F906F9009946F927F928F929F92EC
:1016D000AF92BF92CF92DF92EF92FF920F931F9340
:1016E000CF93DF935C01EB016A0149013801870167
:1016F000DC01ED91FC916217730719F5641675060C
:101700002CF0962D872D3A01C92ED82E9601261938
:1017100037092F5F3F4F048CF58DE02DA301BE01EB
:10172000C5010995DF91CF911F910F91FF90EF9027
:10173000DF90CF90BF90AF909F908F907F906F90F1
:1017400008954615570591F42617370724F0892D7B
:101750004B01C22FD82F9E01281939092F5F3F4F07
:10176000068CF78DE02DA601B401DACF0284F38553
:10177000E02D0995D501ED91FC910488F589E02DC6
:1017800083019401A601BE01C5010995D501ED9122
:10179000FC910688F789E02DC501DF91CF911F915B
:1017A0000F91FF90EF90DF90CF90BF90AF909F9000
:1017B0008F907F906F900994EF92FF920F931F93F9
:1017C000DC011A960D911C911B9718962D913C9156
:1017D0001997ED91FC9100A0F1A1E02D7B0150E063
:1017E00040E070E060E009951F910F91FF90EF904D
:1017F00008954F925F926F927F928F929F92AF92D5
:10180000BF92CF92DF92EF92FF920F931F93CF93ED
:10181000DF936C012B015A0139014801DC01ED9184
:10182000FC910284F385E02D0995E201640C751C9E
:10183000D601ED91FC91C615D7055CF40088F189BD
:10184000E02D87019401A501BE01C60109952196ED
:10185000EFCF0688F789E02DC601DF91CF911F9168
:101860000F91FF90EF90DF90CF90BF90AF909F903F
:101870008F907F906F905F904F9009948F929F927E
:10188000AF92BF92CF92DF92EF92FF920F931F938E
:10189000CF93DF93EC015B014A016901E881F98193
:1018A0000284F385E02D099595012C0D3D1D2150F5
:1018B0003109E881F9810488F589E02D78018401F6
:1018C000A401B501CE010995E881F9810688F7895F
:1018D000E02DCE01DF91CF911F910F91FF90EF90FE
:1018E000DF90CF90BF90AF909F908F9009948F9290
:1018F0009F92AF92BF92CF92DF92EF92FF920F939F
:101900001F93CF93DF93EC015B014A0169017801DA
:10191000E881F9810284F385E02D0995C80CD91C72
:10192000860101501109E881F9810488F589E02DCB
:101930009501A401B501CE010995E881F9810688D8
:10194000F789E02DCE01DF91CF911F910F91FF908C
:10195000EF90DF90CF90BF90AF909F908F900994C1
:10196000EF92FF920F931F93DC01ED91FC9100A089
:10197000F1A1E02D09951F910F91FF90EF9008952F
:101980000F931F93DC01ED91FC91068CF78DE02DF8
:1019900009951F910F9108950F931F93DC01ED910D
:1019A000FC91048CF58DE02D09951F910F91089500
:1019B000DC01ED91FC910084F185E02D09942F92DA
:1019C0003F924F925F926F927F928F929F92AF92CF
:1019D000BF92CF92DF92EF92FF920F931F93CF931C
:1019E000DF9300D000D000D0CDB7DEB73C016A0154
:1019F0003E832D83FC82EB825801A41AB50AB7FE00
:101A000003C0B194A194B1088D809E80861A970A74
:101A100097FE03C09194819491088A149B045CF012
:101A2000902F812F0D811E819D838E839C2D8D2D66
:101A30006B01692F782F0C151D055CF09D818E813F
:101A40007E836D83692F782F902F812F8601C92E79
:101A5000D82E1601201A310A2B012D813E81421AFF
:101A6000530A57FE03C0519441945108710137FE47
:101A700003C03FEFE31AF30AF594E7948D819E814A
:101A8000861797075CF5A1E0B0E0BA83A983C0167A
:101A9000D1064CF1D301ED91FC910484F585E02D44
:101AA0002B813C81A8016D817E818A149B041CF0EE
:101AB0004D815E81B801C3010995E418F508F7FE70
:101AC0000AC02D813E8189819A81280F391F3E836A
:101AD0002D83E20CF31C0F5F1F4FD9CF2FEF3FEF89
:101AE0003A832983D4CF26960FB6F894DEBF0FBE73
:101AF000CDBFDF91CF911F910F91FF90EF90DF90BD
:101B0000CF90BF90AF909F908F907F906F905F909D
:101B10004F903F902F900895089590E080E00895B1
:101B2000E0E0F1E088EF91E0DF019C011D9221509F
:101B30003040E1F71092D3048091D404833508F447
:101B400083E58093D4041092D5048091D6048F321B
:101B500008F48FE28093D6041092BD041092BC0466
:101B60001092BF041092BE0408950E94321AFB0125
:101B700001900020E9F73197AF01461B570BDC01BC
:101B8000ED91FC910280F381E02D09948F929F9258
:101B9000AF92BF92EF92FF920F931F93CF93DF9379
:101BA000CDB7DEB7A1970FB6F894DEBF0FBECDBF9D
:101BB0007C01FA01CB0119A2223008F42AE08E013F
:101BC0000F5D1F4F822E912CB12CA12CBF01A501BE
:101BD00094010E94D118F901CA016A300CF5605DC8
:101BE000D8016E938D01232B242B252B79F790E0C0
:101BF00080E0109721F0BD01C7010E94B70DA196AA
:101C00000FB6F894DEBF0FBECDBFDF91CF911F910D
:101C10000F91FF90EF90BF90AF909F908F9008959D
:101C2000695CDECF2F923F924F925F926F927F92CC
:101C3000BF92CF92DF92EF92FF920F931F93CF93B9
:101C4000DF938C016A017B01C22FAB019601CB01AE
:101C5000B6010E94B8186CE373E081111AC0260126
:101C60003701E89477F82FEF3FEF4FE75FE7C301C5
:101C7000B2010E94B818811127C02FEF3FEF4FE744
:101C80005FE7C301B2010E94EE161816ECF460E49F
:101C900073E0C8010E94B70DEC0168E473E0C8016D
:101CA0000E94B70D8C0F9D1FDF91CF911F910F9157
:101CB000FF90EF90DF90CF90BF907F906F905F90FC
:101CC0004F903F902F9008952FEF3FEF4FE75FE445
:101CD000C701B6010E94461818161CF464E473E0AC
:101CE000D8CF2FEF3FEF4FE75FECC701B6010E945F
:101CF000EE1687FDF3CF20E030E0A901C701B60161
:101D00000E94EE16712C612C87FF0EC0D801ED9158
:101D1000FC910190F081E02D6DE2C80109953C0134
:101D2000F7FAF094F7F8F094BC2E60E070E080E0F1
:101D30009FE3D0E020E030E040E251E40E94F3165F
:101D400021E02D0FD1E02C17A8F3A70196010E94E6
:101D500082166B017C010E9465171B012C010E94F9
:101D600094179B01AC01C701B6010E9481166B015B
:101D70007C012AE0B201A101C8010E94C60DEC015C
:101D8000D801ED91FC910190F081E02D6EE2C80147
:101D90000995C80FD91FC60DD71DBA94BFEFBB1642
:101DA00009F47BCF20E030E040E251E4C701B60106
:101DB0000E944B182B013C010E9465176B01F12C0E
:101DC000E12C2AE0B701A601C8010E94C60DC80F88
:101DD000D91FC701B6010E9494179B01AC01C30132
:101DE000B2010E9481166B017C01D7CF1F93CF9364
:101DF000DF9385ED8093BC0080916F039091700319
:101E0000A0917103B09172030796A11DB11D23E04B
:101E1000B695A795979587952A95D1F72091BC00FF
:101E200024FD03C01092B70352C040916F0350913C
:101E300070036091710370917203452B462B472B01
:101E400069F30097A105B10541F02AE22A95F1F75F
:101E500000C00197A109B109E1CF80916E03C1E0F3
:101E6000C0936D03882399F1D091B8001091BA0006
:101E70008091BC008A7B8093BC0060E082E10E947C
:101E8000680360E083E10E9468031092B703C09387
:101E9000B9031092B80361E082E10E94680361E037
:101EA00083E10E9468038091B9008E7F8093B9001E
:101EB0008091B9008D7F8093B90088E48093B80049
:101EC00085E48093BC001093BA00D093B800DF91F2
:101ED000CF911F9108951F920F920FB60F92112468
:101EE0002F933F938F939F93AF93BF9380910B0456
:101EF00090910C04A0910D04B0910E0430910A044D
:101F000023E0230F2D3758F50196A11DB11D209315
:101F10000A0480930B0490930C04A0930D04B093D7
:101F20000E0480910F0490911004A0911104B091BF
:101F300012040196A11DB11D80930F04909310040B
:101F4000A0931104B0931204BF91AF919F918F9110
:101F50003F912F910F900FBE0F901F90189526E87C
:101F6000230F0296A11DB11DD2CF1F920F920FB663
:101F70000F9211242F933F934F935F936F937F930F
:101F80008F939F93AF93BF93EF93FF9383E194E07D
:101F90000E94BF05FF91EF91BF91AF919F918F91EB
:101FA0007F916F915F914F913F912F910F900FBE55
:101FB0000F901F9018951F920F920FB60F92112439
:101FC0002F938F939F93EF93FF93E0912304F091CE
:101FD00024048081E0912904F0912A0482FD1BC031
:101FE000908180912C048F5F8F7320912D04821734
:101FF00041F0E0912C04F0E0ED5EFB4F958F809373
:102000002C04FF91EF919F918F912F910F900FBE14
:102010000F901F9018958081F4CF1F920F920FB6EA
:102020000F9211242F933F934F935F936F937F935E
:102030008F939F93AF93BF93EF93FF938091B900DA
:10204000887F803609F44AC0F0F5883209F4A5C0CB
:1020500018F5803109F499C0B8F4882309F4F5C063
:10206000883009F492C0FF91EF91BF91AF919F9199
:102070008F917F916F915F914F913F912F910F9031
:102080000FBE0F901F901895883109F486C08032DA
:1020900051F78093B60314C0803409F49BC040F418
:1020A0008033B9F38833F9F68093B60385ECAEC07C
:1020B000803509F483C0883509F494C0883499F6D2
:1020C0000E94F60ED0CF883909F48AC038F58837D7
:1020D00029F050F4883611F0803729F683E0809398
:1020E000B7031092B50355C0883809F479C0803918
:1020F00019F0803809F0B7CF8091B503803208F02D
:102100006FC0E091B50381E08E0F8093B50380919D
:10211000BB00F0E0EB56FC4F80833BC0803B39F0C6
:10212000D0F4803A09F477C0883A09F09CCF84E073
:102130008093B7031092940310929303F0E0E0E0D1
:1021400009958091930381110FC081E080939303DF
:102150001092730309C0803C09F4A8CF883C09F4AD
:10216000A5CF883B09F07FCFE091940381E08E0FEB
:1021700080939403F0E0ED58FC4F80818093BB0086
:10218000909194038091930329C08091DC03809304
:10219000BB0085EC8093BC0066CF9091DB038091FF
:1021A000DA03981758F5E091DB0381E08E0F8093F6
:1021B000DB03F0E0E654FC4F8081E9CFE091DB03E4
:1021C00081E08E0F8093DB038091BB00F0E0E6544A
:1021D000FC4F80839091DB038091DA039817C8F25B
:1021E00085E8D8CFE091DB0381E08E0F8093DB039D
:1021F0008091BB00F0E0E654FC4F80838091B903EE
:1022000081115ECF81E08093B80384EA8093BC00A3
:102210001092B70328CF85EC8093BC001092B703CF
:102220008091B503803230F4E091B503F0E0EB56D5
:10223000FC4F10826091B50370E085E993E0F0E017
:10224000E0E009951092B5030ECF1092B60338CF97
:10225000CF93DF93E3E1F4E01382128288EE93E000
:10226000A0E0B0E084839583A683B78382E093E007
:102270009183808385EC90E09587848784EC90E05F
:102280009787868780EC90E0918B808B81EC90E043
:10229000938B828B82EC90E0958B848B86EC90E024
:1022A000978B868B118E128E138E148EC0EBD4E01A
:1022B0001B821A8224E530E03D832C8380E390E08A
:1022C0009F838E83398728879B878A871E8A1D86EE
:1022D0001C861F861E8681E08D8B8C8B2FEF3FEF37
:1022E0003B8B2A8B398B288B8F8B188E1A8E198EED
:1022F00084E193E0998388838CE190E00E940D193A
:10230000DC0111961C921E9213961C921E9212973B
:1023100084E01B968C931B9787E01C968C931C97EC
:102320008FEF1E968C931E9786E01D968C931D97BB
:10233000E2EBF5E0E491F0E0EE0FFF1FEC55FA4F11
:102340008591949156969C938E935597E4E9F5E088
:10235000E4915A96EC935A97E4EBF5E0E491F0E0BF
:10236000EE0FFF1FEC55FA4F8591949150969C9378
:102370008E931F97E6E9F5E0E4915796EC93579713
:10238000E5EBF5E0E491F0E0EE0FFF1FEC55FA4FBE
:102390008591949152969C938E935197E7E9F5E03D
:1023A000E4915996EC93599740E059E06DE370E061
:1023B00014964D935D936D937C93179781E090E015
:1023C00019969C938E9318971A961C921A975B965F
:1023D0001C925B97BC8FAB8F85E08E8F83E08D8FD7
:1023E000DF91CF910895CF93DF93CDB7DEB7669796
:1023F0000FB6F894DEBF0FBECDBF789484B582606F
:1024000084BD84B5816084BD85B5826085BD85B598
:10241000816085BD80916E00816080936E00109216
:102420008100809181008260809381008091810091
:102430008160809381008091800081608093800022
:102440008091B10084608093B1008091B000816080
:102450008093B00080917A00846080937A008091AC
:102460007A00826080937A0080917A008160809304
:102470007A0080917A00806880937A001092C1007F
:10248000E0912304F091240482E08083E0911F0412
:10249000F09120041082E0912104F09122048FEC4D
:1024A000808310922B04E0912704F091280486E0A9
:1024B0008083E0912504F0912604808180618083EF
:1024C000E0912504F0912604808188608083E0916A
:1024D0002504F0912604808180688083E0912504A2
:1024E000F091260480818F7D80832091CB043091F0
:1024F000CC043A832983D9011B968C918F3F49F0F4
:1025000061E00E94960361E0E981FA8183850E947F
:102510006803A981BA818D919C91892B09F4AFC37D
:102520001FB7F8948091DD03811127C0E8EBF5E037
:102530008491EAE9F5E09491E82FF0E0EE0FFF1FB7
:10254000E859FA4FA591B491EC91E92321F461E0A7
:102550008AE00E94680361E08AE00E9496038CB5DD
:1025600080618CBD8CB580648CBD61E08DE00E9483
:10257000960361E08BE00E9496038091DD038F5FFC
:102580008093DD031FBF81E0E981FA81838F61E0E1
:102590008091CE040E9496038091CD0487FD03C0F4
:1025A00061E00E94960384E08093D00488E28093E7
:1025B000CF041092D1041092D2040E94830610928C
:1025C000D3048091D404833508F483E58093D40444
:1025D0001092D5048091D6048F3208F48FE2809354
:1025E000D6040E94C10661E089E00E94960361E082
:1025F0008AE00E94960361E08BE00E94960361E00E
:1026000088E00E94960382E30E946C0664E670E014
:1026100080E090E00E940F050E94900D11E080E0A4
:10262000282E80E0382E83E10E943F03BC01990FE1
:10263000880B990B0E94961769837A838B839C83FE
:102640006093060470930704809308049093090430
:1026500082E10E943F03BC01990F880B990B0E94F5
:1026600096176D837E838F8398876093020470939F
:10267000030480930404909305048CE00E943F03BC
:10268000BC01990F880B990B0E94961769877A876E
:102690008B879C876093FE037093FF0380930004F5
:1026A000909301048DE00E943F03BC01990F880BB9
:1026B000990B0E9496176D877E878F87988B609302
:1026C000FA037093FB038093FC039093FD038EE069
:1026D0000E94C703BC01990F880B990B0E949617A3
:1026E0002B013C014092F6035092F7036092F803ED
:1026F0007092F9038FE00E94C703BC01990F880B09
:10270000990B0E9496176B017C01C092F203D09244
:10271000F303E092F403F092F50380E10E94C70313
:10272000BC01990F880B990B0E9496174B015C0115
:102730008092EE039092EF03A092F003B092F10327
:1027400081E10E94C7039E8B8D8BA3019201C3017F
:10275000B2010E94821620E030E040E05FE30E9478
:10276000821620E030EC4FE754E40E94F31620E09C
:1027700030E040EA50E40E944B18698B7A8B8B8BD7
:102780009C8B6093EA037093EB038093EC0390932C
:10279000ED03A7019601C701B6010E94821620E051
:1027A00030E040E05FE30E94821620E030EC4FE72B
:1027B00054E40E94F31620E030E040EF50E40E9421
:1027C0004B186B017C01C092E603D092E703E092C4
:1027D000E803F092E903A5019401C501B4010E9448
:1027E000821620E030E040E05FE30E94821620E0A5
:1027F00030EC4FE754E40E94F31620E030E040E371
:1028000051E40E944B184B015C018092E2039092CC
:10281000E303A092E403B092E5032D893E89B90158
:10282000330F880B990B0E9496179B01AC010E94F5
:10283000821620E030E040E05FE30E94821620E054
:1028400030EC4FE754E40E94F31620E030E040E320
:1028500051E40E944B182B013C0120E030E0A9011B
:1028600069817A818B819C810E94EE16811138C228
:102870004092DE035092DF036092E0037092E10326
:1028800020E030E0A9016D817E818F8198850E94D2
:10289000EE16882381F02DEC3CEC4CE85FEBC50193
:1028A000B4010E944B186093E2037093E30380939A
:1028B000E4039093E50320E030E0A90169857A857F
:1028C0008B859C850E94EE16882381F02DEC3CECD4
:1028D0004CE85FEBC701B6010E944B186093E6031A
:1028E0007093E7038093E8039093E90320E030E0DE
:1028F000A9016D857E858F8598890E94EE168823B3
:1029000091F02DEC3CEC4CE85FEB69897A898B897E
:102910009C890E944B186093EA037093EB038093A9
:10292000EC039093ED030E94900D1093C404109358
:10293000C5041092BD041092BC041092BF04109202
:10294000BE046BE473E080EB94E00E94B70D40910D
:10295000EA035091EB036091EC037091ED0321E0E9
:1029600030E080EB94E00E94120EC090EA03D09019
:10297000EB03E090EC03F090ED0320E030E040EA60
:1029800051E4C701B6010E944618181654F020E021
:1029900030E040EA51ECC701B6010E94EE1687FF15
:1029A00014C061E088E00E94680362E370E080E0A8
:1029B00090E00E940F0560E088E00E94680362E3F7
:1029C00070E080E090E00E940F051093C404109323
:1029D000C5041092BD041092BC048AE090E090936C
:1029E000BF048093BE046FE473E080EB94E00E9428
:1029F000B70D4091E6035091E7036091E8037091B1
:102A0000E90321E030E080EB94E00E94120EC090D8
:102A1000E603D090E703E090E803F090E90320E0BC
:102A200030E040EA51E4C701B6010E94461818168A
:102A300054F020E030E040EA51ECC701B6010E94BA
:102A4000EE1687FF14C061E089E00E94680362E32C
:102A500070E080E090E00E940F0560E089E00E9455
:102A6000680362E370E080E090E00E940F0510933D
:102A7000C4041093C5041092BD041092BC04A4E1D8
:102A8000B0E0B093BF04A093BE0463E573E080EBB5
:102A900094E00E94B70D4091E2035091E3036091EE
:102AA000E4037091E50321E030E080EB94E00E94C4
:102AB000120EC090E203D090E303E090E403F090A4
:102AC000E50320E030E040EA51E4C701B6010E948E
:102AD0004618181654F020E030E040EA51ECC701E7
:102AE000B6010E94EE1687FF14C061E08AE00E94E2
:102AF000680362E370E080E090E00E940F0560E010
:102B00008AE00E94680362E370E080E090E00E9447
:102B10000F051093C4041093C5041092BD041092C5
:102B2000BC04EEE1F0E0F093BF04E093BE0467E57F
:102B300073E080EB94E00E94B70D4091DE0350916A
:102B4000DF036091E0037091E10321E030E080EB6E
:102B500094E00E94120EC090DE03D090DF03E0905C
:102B6000E003F090E10320E030E040EA51E4C701E7
:102B7000B6010E944618181654F020E030E040EAF2
:102B800051ECC701B6010E94EE1687FF14C061E048
:102B90008BE00E94680362E370E080E090E00E94B6
:102BA0000F0560E08BE00E94680362E370E080E064
:102BB00090E00E940F056BE573E083E194E00E94D2
:102BC000B70D4091EA035091EB036091EC037091D3
:102BD000ED0322E030E083E194E00E94120E6FE505
:102BE00073E083E194E00E94B70D4091E6035091B9
:102BF000E7036091E8037091E90322E030E083E1AC
:102C000094E00E94120E63E673E083E194E00E9478
:102C1000B70D4091E2035091E3036091E40370919A
:102C2000E50322E030E083E194E00E94120E67E6C3
:102C300073E083E194E00E94B70D4091DE03509170
:102C4000DF036091E0037091E10322E030E083E173
:102C500094E00E94120E0E94C10661E070E080E0E4
:102C600090E00E940F052114310409F4DCCC0E948D
:102C7000AB05882309F4D7CC0E940000D4CC61E0D6
:102C8000E981FA8184850E949603A981BA811A9606
:102C90008C911A978B7FF9F460E01C968C910E94BE
:102CA0006803A981BA811D968C918F3F49F061E03C
:102CB0000E94960361E0E981FA8185850E9468039C
:102CC000A981BA811E968C918F3F09F45CCC60E09B
:102CD0000E94960358CC61E0E981FA818485DFCFB8
:102CE0002DEC3CEC4CE85FEBC301B2010E944B18A9
:102CF0006093DE037093DF038093E0039093E1031E
:102D0000BFCD5058BB27AA270E9499160C940C18C7
:102D10000E94FE1738F00E94051820F039F49F3FFA
:102D200019F426F40C94FB170EF4E095E7FB0C94D1
:102D3000F517E92F0E941D1858F3BA176207730799
:102D40008407950720F079F4A6F50C943F180EF44B
:102D5000E0950B2EBA2FA02D0B01B90190010C01AB
:102D6000CA01A0011124FF27591B99F0593F50F4C3
:102D7000503E68F11A16F040A22F232F342F44271B
:102D8000585FF3CF469537952795A795F040539513
:102D9000C9F77EF41F16BA0B620B730B840BBAF0E3
:102DA0009150A1F0FF0FBB1F661F771F881FC2F74E
:102DB0000EC0BA0F621F731F841F48F48795779562
:102DC0006795B795F7959E3F08F0B0CF9395880F1C
:102DD00008F09927EE0F9795879508950E94D117CF
:102DE00008F481E008950E9407170C940C180E94C3
:102DF000051858F00E94FE1740F029F45F3F29F0B3
:102E00000C94F51751110C9440180C94FB170E9468
:102E10001D1868F39923B1F3552391F3951B550BB6
:102E2000BB27AA2762177307840738F09F5F5F4F9D
:102E3000220F331F441FAA1FA9F335D00E2E3AF0DC
:102E4000E0E832D091505040E695001CCAF72BD0F4
:102E5000FE2F29D0660F771F881FBB1F2617370745
:102E60004807AB07B0E809F0BB0B802DBF01FF2777
:102E700093585F4F3AF09E3F510578F00C94F51748
:102E80000C9440185F3FE4F3983ED4F38695779511
:102E90006795B795F7959F5FC9F7880F911D969530
:102EA000879597F90895E1E0660F771F881FBB1F8C
:102EB000621773078407BA0720F0621B730B840B39
:102EC000BA0BEE1F88F7E09508950E94251888F048
:102ED0009F5798F0B92F9927B751B0F0E1F0660FDE
:102EE000771F881F991F1AF0BA95C9F714C0B1301F
:102EF00091F00E943F18B1E008950C943F18672F9D
:102F0000782F8827B85F39F0B93FCCF3869577954D
:102F10006795B395D9F73EF4909580957095619536
:102F20007F4F8F4F9F4F0895E89409C097FB3EF461
:102F300090958095709561957F4F8F4F9F4F992306
:102F4000A9F0F92F96E9BB279395F6958795779584
:102F50006795B795F111F8CFFAF4BB0F11F460FF44
:102F60001BC06F5F7F4F8F4F9F4F16C0882311F09C
:102F700096E911C0772321F09EE8872F762F05C0B0
:102F8000662371F096E8862F70E060E02AF09A954B
:102F9000660F771F881FDAF7880F9695879597F940
:102FA0000895990F0008550FAA0BE0E8FEEF1616DA
:102FB0001706E807F907C0F012161306E407F5072D
:102FC00098F0621B730B840B950B39F40A2661F0A1
:102FD000232B242B252B21F408950A2609F4A14044
:102FE000A6958FEF811D811D089597F99F6780E851
:102FF00070E060E008959FEF80EC089500240A944B
:103000001616170618060906089500240A941216C3
:103010001306140605060895092E0394000C11F4F6
:10302000882352F0BB0F40F4BF2B11F460FF04C0A3
:103030006F5F7F4F8F4F9F4F089557FD9058440FFC
:10304000551F59F05F3F71F04795880F97FB991F07
:1030500061F09F3F79F087950895121613061406C4
:10306000551FF2CF4695F1DF08C016161706180651
:10307000991FF1CF86957105610508940895E8942C
:10308000BB2766277727CB0197F908950E94D117B0
:1030900008F48FEF08950E945E180C940C180E949B
:1030A000FE1738F00E94051820F0952311F00C94BB
:1030B000F5170C94FB1711240C9440180E941D184E
:1030C00070F3959FC1F3950F50E0551F629FF0017B
:1030D000729FBB27F00DB11D639FAA27F00DB11D94
:1030E000AA1F649F6627B00DA11D661F829F22271D
:1030F000B00DA11D621F739FB00DA11D621F839FA4
:10310000A00D611D221F749F3327A00D611D231F79
:10311000849F600D211D822F762F6A2F11249F57C7
:1031200050409AF0F1F088234AF0EE0FFF1FBB1FCA
:10313000661F771F881F91505040A9F79E3F510589
:1031400080F00C94F5170C9440185F3FE4F3983E20
:10315000D4F3869577956795B795F795E7959F5F33
:10316000C1F7FE2B880F911D9695879597F90895C5
:103170000E94D117880B990B089597FB072E16F420
:10318000009407D077FD09D00E94F31807FC05D002
:103190003EF4909581959F4F0895709561957F4F6E
:1031A0000895A1E21A2EAA1BBB1BFD010DC0AA1F88
:1031B000BB1FEE1FFF1FA217B307E407F50720F0A0
:1031C000A21BB30BE40BF50B661F771F881F991F1B
:1031D0001A9469F760957095809590959B01AC0164
:1031E000BD01CF010895AA1BBB1B51E107C0AA1F57
:1031F000BB1FA617B70710F0A61BB70B881F991F98
:103200005A95A9F780959095BC01CD010895EE0FD0
:10321000FF1F0590F491E02D09940F931F93CF9316
:10322000DF938230910510F482E090E0E091D904C0
:10323000F091DA0430E020E0B0E0A0E0309799F4BB
:103240002115310509F44AC0281B390B24303105FA
:10325000D8F58A819B816115710589F1FB01938302
:103260008283FE0111C04081518102811381481780
:103270005907E0F04817590799F4109761F0129632
:103280000C93129713961C933296CF01DF91CF9136
:103290001F910F9108950093D9041093DA04F4CF8D
:1032A0002115310551F04217530738F0A901DB0110
:1032B0009A01BD01DF01F801C1CFEF01F9CF909371
:1032C000DA048093D904CDCFFE01E20FF31F81937E
:1032D00091932250310939832883D7CF2091D70485
:1032E0003091D804232B41F42091FA023091FB0253
:1032F0003093D8042093D7042091F8023091F9023A
:103300002115310541F42DB73EB74091FC02509193
:10331000FD02241B350BE091D704F091D804E2178D
:10332000F307A0F42E1B3F0B2817390778F0AC01E8
:103330004E5F5F4F2417350748F04E0F5F1F5093C5
:10334000D8044093D704819391939FCFF0E0E0E0BD
:103350009CCFCF93DF930097E9F0FC013297138263
:103360001282A091D904B091DA04ED0130E020E09E
:103370001097A1F420813181820F931F2091D704EF
:103380003091D8042817390709F061C0F093D804A8
:10339000E093D704DF91CF910895EA01CE17DF07BC
:1033A000E8F54A815B819E0141155105B1F7E901BC
:1033B000FB83EA8349915991C40FD51FEC17FD0790
:1033C00061F4808191810296840F951FE9019983B0
:1033D0008883828193819B838A83F0E0E0E0129668
:1033E0008D919C9113970097B9F52D913C91119770
:1033F000CD010296820F931F2091D7043091D804FB
:103400002817390739F6309751F51092DA041092DF
:10341000D904B093D804A093D704BCCFD383C2837C
:1034200040815181840F951FC817D90761F44E5F01
:103430005F4F88819981480F591F518340838A814A
:103440009B81938382832115310509F0B0CFF093DE
:10345000DA04E093D9049ECFFD01DC01C0CF1382D2
:103460001282D7CF81E090E0F8940C94371AF89448
:02347000FFCF8C
:10347200000000000000000000000000000000004A
:10348200000000000000000000000000000000003A
:10349200000000000000C0E0F0F8FCFCFEFFFCE0D1
:1034A200000000000000000000000000000000001A
:1034B200000000000000000000000000000000000A
:1034C20000000000000000000000000000000000FA
:1034D2000000000000F8F8F8F8F8F8F8F8F8F8F842
:1034E200F8F0F0E0E0C080C0FCFFFFFFFF7F3F7F0D
:1034F200FFFFFFFFFF0000000000000000000000CF
:1035020000000000000000000000000000000000B9
:1035120000000000000000000000000000000000A9
:10352200000000000000000000000F1F3F7FFFFFAF
:10353200FFFFFFFFFFFFE7C7C7878F9F9FFFFFFFC9
:10354200C1C0E0FCFFFFFFFFFFFCFCFCFCFEFEFE37
:10355200FCFCF8F8F0E0C0C0000000000000000031
:103562000000000000000000000000000000000059
:103572000000000000000000000000000000000049
:103582000080C0E0F1FBFFFFFFFFFF7F1F0F0F87EF
:10359200E7FFFFFF1F1F3FF9F8F8F8F8F8F8FDFF03
:1035A200FFFFFFFFFFFFFFFF7F3F0F07010000004C
:1035B2000000000000000000000000000000000009
:1035C20000000000000000000000000000000000F9
:1035D200000000F0FEFFFFFFFFFFFFFFFFFFFFFE07
:1035E2007E3F3F0F1FFFFFFFFCF0E0F1FFFFFFFFF9
:1035F200FFFCF001010101010101010000000000D6
:1036020000000000000000000000000000000000B8
:1036120000000000000000000000000000000000A8
:10362200000000000000000303030303030303017F
:1036320001010100000000000000030F1F3F7F7F17
:10364200FFFFFFFF7F7F1F0300000000000000005C
:103652000000000000000000000000000000000068
:1036620000000000000000000000DB0480000000F9
:103672000000E10541056E052E069F057D059105B9
:1036820000000000330A41058D0D8C0D3707CE076F
:10369200D80CB00CCC0CC00CDF0CCE07F9072607F7
:1036A200770C3E0CF90BDC0B640B050B6E616E00A4
:1036B200696E66006F7666000D0A0056313D00564F
:1036C200323D0056333D0056343D0056313A0056E5
:0C36D200323A0056333A0056343A0000F9
:00000001FF
